{
  "_format": "hh-sol-artifact-1",
  "contractName": "TokenWithdrawer",
  "sourceName": "contracts/TokenWithdrawer.sol",
  "abi": [
    {
      "inputs": [
        {
          "internalType": "address",
          "name": "initialOwner",
          "type": "address"
        }
      ],
      "stateMutability": "nonpayable",
      "type": "constructor"
    },
    {
      "inputs": [
        {
          "internalType": "address",
          "name": "owner",
          "type": "address"
        }
      ],
      "name": "OwnableInvalidOwner",
      "type": "error"
    },
    {
      "inputs": [
        {
          "internalType": "address",
          "name": "account",
          "type": "address"
        }
      ],
      "name": "OwnableUnauthorizedAccount",
      "type": "error"
    },
    {
      "inputs": [
        {
          "internalType": "address",
          "name": "token",
          "type": "address"
        }
      ],
      "name": "SafeERC20FailedOperation",
      "type": "error"
    },
    {
      "anonymous": false,
      "inputs": [
        {
          "indexed": true,
          "internalType": "address",
          "name": "token",
          "type": "address"
        },
        {
          "indexed": false,
          "internalType": "uint256",
          "name": "amount",
          "type": "uint256"
        }
      ],
      "name": "EmergencyWithdraw",
      "type": "event"
    },
    {
      "anonymous": false,
      "inputs": [
        {
          "indexed": true,
          "internalType": "address",
          "name": "previousOwner",
          "type": "address"
        },
        {
          "indexed": true,
          "internalType": "address",
          "name": "newOwner",
          "type": "address"
        }
      ],
      "name": "OwnershipTransferred",
      "type": "event"
    },
    {
      "anonymous": false,
      "inputs": [
        {
          "indexed": true,
          "internalType": "address",
          "name": "token",
          "type": "address"
        },
        {
          "indexed": true,
          "internalType": "address",
          "name": "user",
          "type": "address"
        },
        {
          "indexed": false,
          "internalType": "uint256",
          "name": "amount",
          "type": "uint256"
        }
      ],
      "name": "TokensWithdrawn",
      "type": "event"
    },
    {
      "inputs": [
        {
          "internalType": "address",
          "name": "token",
          "type": "address"
        }
      ],
      "name": "emergencyWithdraw",
      "outputs": [],
      "stateMutability": "nonpayable",
      "type": "function"
    },
    {
      "inputs": [],
      "name": "owner",
      "outputs": [
        {
          "internalType": "address",
          "name": "",
          "type": "address"
        }
      ],
      "stateMutability": "view",
      "type": "function"
    },
    {
      "inputs": [],
      "name": "renounceOwnership",
      "outputs": [],
      "stateMutability": "nonpayable",
      "type": "function"
    },
    {
      "inputs": [
        {
          "internalType": "address",
          "name": "newOwner",
          "type": "address"
        }
      ],
      "name": "transferOwnership",
      "outputs": [],
      "stateMutability": "nonpayable",
      "type": "function"
    },
    {
      "inputs": [
        {
          "internalType": "address",
          "name": "token",
          "type": "address"
        },
        {
          "internalType": "address[]",
          "name": "users",
          "type": "address[]"
        }
      ],
      "name": "withdrawTokens",
      "outputs": [],
      "stateMutability": "nonpayable",
      "type": "function"
    }
  ],
  "bytecode": "0x608060405234801561001057600080fd5b50604051610f53380380610f53833981810160405281019061003291906101e2565b80600073ffffffffffffffffffffffffffffffffffffffff168173ffffffffffffffffffffffffffffffffffffffff16036100a55760006040517f1e4fbdf700000000000000000000000000000000000000000000000000000000815260040161009c919061021e565b60405180910390fd5b6100b4816100bb60201b60201c565b5050610239565b60008060009054906101000a900473ffffffffffffffffffffffffffffffffffffffff169050816000806101000a81548173ffffffffffffffffffffffffffffffffffffffff021916908373ffffffffffffffffffffffffffffffffffffffff1602179055508173ffffffffffffffffffffffffffffffffffffffff168173ffffffffffffffffffffffffffffffffffffffff167f8be0079c531659141344cd1fd0a4f28419497f9722a3daafe3b4186f6b6457e060405160405180910390a35050565b600080fd5b600073ffffffffffffffffffffffffffffffffffffffff82169050919050565b60006101af82610184565b9050919050565b6101bf816101a4565b81146101ca57600080fd5b50565b6000815190506101dc816101b6565b92915050565b6000602082840312156101f8576101f761017f565b5b6000610206848285016101cd565b91505092915050565b610218816101a4565b82525050565b6000602082019050610233600083018461020f565b92915050565b610d0b806102486000396000f3fe608060405234801561001057600080fd5b50600436106100575760003560e01c80636ff1c9bc1461005c578063715018a6146100785780638da5cb5b14610082578063da101119146100a0578063f2fde38b146100bc575b600080fd5b6100766004803603810190610071919061098b565b6100d8565b005b610080610255565b005b61008a610269565b60405161009791906109c7565b60405180910390f35b6100ba60048036038101906100b59190610a47565b610292565b005b6100d660048036038101906100d1919061098b565b6105a7565b005b6100e061062d565b61018b6100eb610269565b8273ffffffffffffffffffffffffffffffffffffffff166370a08231306040518263ffffffff1660e01b815260040161012491906109c7565b602060405180830381865afa158015610141573d6000803e3d6000fd5b505050506040513d601f19601f820116820180604052508101906101659190610add565b8373ffffffffffffffffffffffffffffffffffffffff166106b49092919063ffffffff16565b8073ffffffffffffffffffffffffffffffffffffffff167f5fafa99d0643513820be26656b45130b01e1c03062e1266bf36f88cbd3bd96958273ffffffffffffffffffffffffffffffffffffffff166370a08231306040518263ffffffff1660e01b81526004016101fc91906109c7565b602060405180830381865afa158015610219573d6000803e3d6000fd5b505050506040513d601f19601f8201168201806040525081019061023d9190610add565b60405161024a9190610b19565b60405180910390a250565b61025d61062d565b6102676000610733565b565b60008060009054906101000a900473ffffffffffffffffffffffffffffffffffffffff16905090565b61029a61062d565b600073ffffffffffffffffffffffffffffffffffffffff168373ffffffffffffffffffffffffffffffffffffffff1603610309576040517f08c379a000000000000000000000000000000000000000000000000000000000815260040161030090610b91565b60405180910390fd5b6000828290501161034f576040517f08c379a000000000000000000000000000000000000000000000000000000000815260040161034690610bfd565b60405180910390fd5b600083905060005b838390508110156105a057600084848381811061037757610376610c1d565b5b905060200201602081019061038c919061098b565b9050600073ffffffffffffffffffffffffffffffffffffffff168173ffffffffffffffffffffffffffffffffffffffff16036103c85750610593565b60008373ffffffffffffffffffffffffffffffffffffffff1663dd62ed3e83306040518363ffffffff1660e01b8152600401610405929190610c4c565b602060405180830381865afa158015610422573d6000803e3d6000fd5b505050506040513d601f19601f820116820180604052508101906104469190610add565b905060008473ffffffffffffffffffffffffffffffffffffffff166370a08231846040518263ffffffff1660e01b815260040161048391906109c7565b602060405180830381865afa1580156104a0573d6000803e3d6000fd5b505050506040513d601f19601f820116820180604052508101906104c49190610add565b905060008214806104d55750600081145b156104e257505050610593565b60008183106104f157816104f3565b825b905061052984610501610269565b838973ffffffffffffffffffffffffffffffffffffffff166107f7909392919063ffffffff16565b8373ffffffffffffffffffffffffffffffffffffffff168973ffffffffffffffffffffffffffffffffffffffff167f6337ed398c0e8467698c581374fdce4db14922df487b5a39483079f5f59b60a4836040516105869190610b19565b60405180910390a3505050505b8080600101915050610357565b5050505050565b6105af61062d565b600073ffffffffffffffffffffffffffffffffffffffff168173ffffffffffffffffffffffffffffffffffffffff16036106215760006040517f1e4fbdf700000000000000000000000000000000000000000000000000000000815260040161061891906109c7565b60405180910390fd5b61062a81610733565b50565b610635610879565b73ffffffffffffffffffffffffffffffffffffffff16610653610269565b73ffffffffffffffffffffffffffffffffffffffff16146106b257610676610879565b6040517f118cdaa70000000000000000000000000000000000000000000000000000000081526004016106a991906109c7565b60405180910390fd5b565b61072e838473ffffffffffffffffffffffffffffffffffffffff1663a9059cbb85856040516024016106e7929190610c75565b604051602081830303815290604052915060e01b6020820180517bffffffffffffffffffffffffffffffffffffffffffffffffffffffff8381831617835250505050610881565b505050565b60008060009054906101000a900473ffffffffffffffffffffffffffffffffffffffff169050816000806101000a81548173ffffffffffffffffffffffffffffffffffffffff021916908373ffffffffffffffffffffffffffffffffffffffff1602179055508173ffffffffffffffffffffffffffffffffffffffff168173ffffffffffffffffffffffffffffffffffffffff167f8be0079c531659141344cd1fd0a4f28419497f9722a3daafe3b4186f6b6457e060405160405180910390a35050565b610873848573ffffffffffffffffffffffffffffffffffffffff166323b872dd86868660405160240161082c93929190610c9e565b604051602081830303815290604052915060e01b6020820180517bffffffffffffffffffffffffffffffffffffffffffffffffffffffff8381831617835250505050610881565b50505050565b600033905090565b600080602060008451602086016000885af1806108a4576040513d6000823e3d81fd5b3d9250600051915050600082146108bf5760018114156108db565b60008473ffffffffffffffffffffffffffffffffffffffff163b145b1561091d57836040517f5274afe700000000000000000000000000000000000000000000000000000000815260040161091491906109c7565b60405180910390fd5b50505050565b600080fd5b600080fd5b600073ffffffffffffffffffffffffffffffffffffffff82169050919050565b60006109588261092d565b9050919050565b6109688161094d565b811461097357600080fd5b50565b6000813590506109858161095f565b92915050565b6000602082840312156109a1576109a0610923565b5b60006109af84828501610976565b91505092915050565b6109c18161094d565b82525050565b60006020820190506109dc60008301846109b8565b92915050565b600080fd5b600080fd5b600080fd5b60008083601f840112610a0757610a066109e2565b5b8235905067ffffffffffffffff811115610a2457610a236109e7565b5b602083019150836020820283011115610a4057610a3f6109ec565b5b9250929050565b600080600060408486031215610a6057610a5f610923565b5b6000610a6e86828701610976565b935050602084013567ffffffffffffffff811115610a8f57610a8e610928565b5b610a9b868287016109f1565b92509250509250925092565b6000819050919050565b610aba81610aa7565b8114610ac557600080fd5b50565b600081519050610ad781610ab1565b92915050565b600060208284031215610af357610af2610923565b5b6000610b0184828501610ac8565b91505092915050565b610b1381610aa7565b82525050565b6000602082019050610b2e6000830184610b0a565b92915050565b600082825260208201905092915050565b7f546f6b656e20616464726573732063616e6e6f74206265207a65726f00000000600082015250565b6000610b7b601c83610b34565b9150610b8682610b45565b602082019050919050565b60006020820190508181036000830152610baa81610b6e565b9050919050565b7f55736572206c6973742063616e6e6f7420626520656d70747900000000000000600082015250565b6000610be7601983610b34565b9150610bf282610bb1565b602082019050919050565b60006020820190508181036000830152610c1681610bda565b9050919050565b7f4e487b7100000000000000000000000000000000000000000000000000000000600052603260045260246000fd5b6000604082019050610c6160008301856109b8565b610c6e60208301846109b8565b9392505050565b6000604082019050610c8a60008301856109b8565b610c976020830184610b0a565b9392505050565b6000606082019050610cb360008301866109b8565b610cc060208301856109b8565b610ccd6040830184610b0a565b94935050505056fea2646970667358221220de6f17c7b35fa5b3c2e9bbf953eed85cc94caf263e91822a49ecc5cce7a15bae64736f6c634300081c0033",
  "linkReferences": {},
  "deployedLinkReferences": {}
}